:020000040800F2
:100000005005002001010008AB110008C1100008D4
:10001000A9110008A9010008F1140008000000005F
:10002000000000000000000000000000AF11000808
:10003000AB01000800000000AD11000835120008F7
:100040001B0100081B0100081B0100081B01000820
:100050001B0100081B0100081B0100081B01000810
:100060001B0100081B0100081B0100081B01000800
:100070001B0100081B0100081B0100081B010008F0
:100080001B0100081B0100081B0100081B010008E0
:100090001B0100081B0100081B0100081B010008D0
:1000A0001B0100081B0100081B0100081B010008C0
:1000B0001B0100081B0100081B0100081B010008B0
:1000C0001B0100081B0100081B0100081B010008A0
:1000D0001B010008E51400081B0100081B010008B3
:1000E0001B0100081B0100081B010008DFF80CD0F1
:1000F00000F048F80048004721170008500500208C
:100100000648804706480047FEE7FEE7FEE7FEE7B1
:10011000FEE7FEE7FEE7FEE7FEE7FEE797120008D0
:10012000ED000008D2B201E000F8012B491EFBD21D
:1001300070470022F6E710B513460A4604461946F2
:10014000FFF7F0FF204610BD421C10F8011B0029EC
:10015000FBD1801A704730B50B46014600202022A3
:10016000012409E021FA02F59D4205D303FA02F5C4
:10017000491B04FA02F52844151EA2F10102F1DC24
:1001800030BD0000064C074D06E0E06840F001037A
:1001900094E8070098471034AC42F6D3FFF7AAFF63
:1001A0009C180008BC180008FEE7704772B6FEE70E
:1001B00010B590F821100022022905D00421816396
:1001C00080F82020012010BD01680B6823F00E0389
:1001D0000B6001680B6823F001030B6090F840305E
:1001E000C46B012101FA03F3636080F8211080F8E9
:1001F0002020104610BD000010B590F821100024FA
:10020000022903D00421816301243DE001680A68CA
:1002100022F00E020A6001680A6822F001020A60F8
:100220001A4A0168914201D1012121E0174A143292
:10023000914201D110211BE0144A2832914201D190
:10024000891515E0114A3C32914201D189140FE021
:100250000E4A5032914202D14FF4803108E00B4AED
:100260006432914202D14FF4801101E04FF080716D
:10027000064A083A5160012180F82110002180F8D7
:100280002010416B01B18847204610BD0800024094
:1002900070B5044600F0FEF80546601C02D0044824
:1002A0000078044400F0F6F8401BA042FAD370BD79
:1002B000500000202DE9F84FDFF8B891002409F133
:1002C000040A0AF1040B23460F270BF1040EC9E0C0
:1002D0000125A5402A40AA427DD1674ED1F804C02D
:1002E000ACEB0608B44532D014DCBCF1030F3AD0B5
:1002F00009DCBCF1000F2AD0BCF1010F1CD0BCF10D
:10030000020F31D11DE0BCF1110F17D0BCF1120F5B
:100310002AD119E0B8F5881F19D006DCB8F5803F5E
:1003200015D0B8F5801F1FD111E0B8F5001F0ED011
:10033000B8F5041F18D10AE0CB6815E0CB681B1D87
:1003400012E0CB6808330FE0CB680C330CE08B680D
:100350002BB1012B4FF0080303D0456104E00423C7
:1003600002E0056100E00023FF2A01D8064601E013
:1003700000F104064FEA840501D9A5F12005D6F85D
:10038000008007FA05FC28EA0C0803FA05F548EA9C
:100390000508C6F800804D68ED0062D5374DAE699E
:1003A00046F00106AE61AD6924F0030605F00105D3
:1003B0000095334D06EB050CDCF80850A607360F08
:1003C00007FA06F825EA0805DFF8B880404503D1AA
:1003D0004FF0000817E044E0DFF8AC80404502D160
:1003E0004FF001080FE0DFF8A480404502D14FF044
:1003F000020808E0DFF89880404502D14FF003087A
:1004000001E04FF0040808FA06F848EA0508CCF8BD
:1004100008804D68D9F80060ED034D4601D51643BC
:1004200000E096432E604D68DAF80060AD03554653
:1004300001D5164300E096432E604D68DBF800605E
:10044000ED025D4601D5164300E096432E604D68EF
:10045000DEF80060AD02754601D5164300E0964314
:100460002E60641C0D682A46E5407FF431AFBDE87C
:10047000F88F00000004014000001110001002403D
:100480000000014000080140000C01400010014044
:1004900000140140014880687047000050000020AF
:1004A0000248816802781144816070475000002042
:1004B000074810B5016841F010010160032000F009
:1004C00075F80F2000F006F800F024F8002010BDA9
:1004D0000020024070B50D4D04464FF47A71287823
:1004E000B1FBF0F00A490968B1FBF0F000F0ECFA5A
:1004F00048B9102C07D200222146501E00F036F8D1
:1005000000206C6070BD012070BD00005000002014
:100510005C0000200C4808B5816941F0010181614F
:10052000816901F001010091C16941F08051C1610F
:10053000C06900F0805000900448416821F0E061FB
:1005400041F00071416008BD001002400000014010
:10055000002809DB00F01F020121914040098000C2
:1005600000F1E020C0F8001170470000F0B40E4B1D
:100570001B680C46C3F30223C3F10705042D00D901
:100580000425191D072901D2002300E0DB1E0126E6
:1005900006FA05F1491E214099409E40761E1640FC
:1005A0003143F0BC00F0BABF0CED00E0064900F0AA
:1005B000070208684FF6FF03184040EA0220034A8A
:1005C00010430860704700000CED00E00000FA05E1
:1005D0002DE9F0470F46050061D0434E306800F02A
:1005E0000700B84209D2306820F007003843306075
:1005F000306800F00700B84251D128683B4C8107B1
:1006000012D5400703D5606840F4E0606060287848
:10061000000703D5606840F4605060606068A968B6
:1006200020F0F000084360602878C00728D0686890
:10063000012810D02168022810D0890700292EDA5D
:10064000616821F0030101436160FFF723FF8046E9
:1006500041F288390DE021688903EFE78901EDE770
:10066000FFF718FFA0EB0801494502D90320BDE8B8
:10067000F0876068696800F00C00B0EB810FEFD183
:10068000306800F00700B8420BD9306820F007004E
:1006900038433060306800F00700B84201D00120D4
:1006A000E5E72878400705D56068E96820F4E06050
:1006B000084360602878000706D56068296920F43F
:1006C000605040EAC100606000F038F86168084A94
:1006D000C1F30311515CC840064908600648006830
:1006E000FFF7F8FE0020C2E70020024000100240A1
:1006F000F01700085C000020540000200448054961
:1007000000684968044AC1F30221515CC84070473F
:100710005C00002000100240001800080448054951
:1007200000684968044AC1F3C221515CC84070475F
:100730005C000020001002400018000812A185B0E3
:100740000FC98DE80F0014A0144A00680490516886
:10075000134801F00C03042B10D0082B0ED1C1F369
:100760008343C9031DF803000AD5516804AAC1F3E5
:100770004041515C0A4A5043B0FBF1F005B070476C
:1007800008494843FAE70000020304050607080980
:100790000A0B0C0D0E0F1010010200000010024099
:1007A00000127A0000093D002DE9F84F040070D0D6
:1007B0002078C04DC00749D06868C0F38100012887
:1007C00007D06868C0F38100022809D16868C003B7
:1007D00006D52868800339D560680028E7D035E061
:1007E0006068B0F5803F0BD010B1B0F5A02F11D0EC
:1007F000286820F480302860286820F4802002E0F7
:10080000286840F480302860606890B1FFF742FEAD
:1008100006460AE0286840F480202860F0E700BF20
:10082000FFF738FE801B642873D828688003F7D54B
:100830000CE0FFF72FFE064605E000BFFFF72AFE9B
:10084000801B6428F0D828688003F7D420789A4E5B
:1008500080074FF001094FF0000839D5686810F0A3
:100860000C0F07D06868C0F38100022809D16868BE
:10087000C00306D42868800714D52069012808D150
:1008800010E02069B0B1C6F80090FFF703FE0746FC
:1008900005E00AE1FFF7FEFDC01B0228C4D8286866
:1008A0008007F7D52868616920F0F80040EAC100A8
:1008B00028600DE0C6F80080FFF7ECFD074604E075
:1008C000FFF7E8FDC01B022823D828688007F7D46B
:1008D000207800072CD57948A169D9B1C0F80090DB
:1008E000FFF7D8FD074604E0FFF7D4FDC01B022840
:1008F0000FD8686A8007F7D571484FF4FA5100683D
:10090000B0FBF1F0009000BF0098411E0091FAD2B8
:100910000EE080E0C0F80080FFF7BCFD074604E071
:10092000FFF7B8FDC01B022875D8686A8007F7D4A6
:100930002078400760D5E8690027C00008D4E8693E
:1009400040F08050E861E869012700F08050009095
:100950005C480168C90513D40168834641F480717D
:100960000160FFF797FD824606E000BFFFF792FDAA
:10097000A0EB0A0064284ED8DBF80000C005F5D5CE
:10098000E06801280AD008B1052813D0286A20F0B1
:1009900001002862286A20F0040002E0286A40F082
:1009A00001002862E06841F2883B98B1FFF772FDD0
:1009B00082460BE0286A40F004002862EEE700BFA0
:1009C000FFF768FDA0EB0A0159455AD8286A80074D
:1009D000F6D50CE0FFF75EFD824605E0FFF75AFD15
:1009E000A0EB0A0159454CD8286A8007F6D41FB1FC
:1009F000E86920F08050E861E06988B36968C1F374
:100A00008101022944D00228C6F8608004D0FFF793
:100A100041FD044638E034E0FFF73CFD074604E0C2
:100A2000FFF738FDC01B02282BD828688001F7D4B7
:100A3000206AB0F5803F05D16868A16820F40030D5
:100A400008436860D4E908010843696821F4741117
:100A500008436860C6F86090FFF71CFD044606E096
:100A600025E000BFFFF716FD001B022809D8286803
:100A70008001F7D51BE000BFFFF70CFD001B02282B
:100A800002D90320BDE8F88F28688001F4D40EE075
:100A90000128F7D06868226A00F48031914204D1BD
:100AA000616A00F47010884201D00120EAE700205A
:100AB000E8E7000000100240000042428004424289
:100AC0005C0000200070004010B5401EB0F1807F37
:100AD00001D3012010BD4FF0E02460610F216017A9
:100AE00000F01CFD0020A06107202061002010BD47
:100AF00070477047F8B5026804461068D1685369BA
:100B000010F00F0F4FF0000553D003F0010601F471
:100B1000907737435FD0C20705D0CA0503D5226C52
:100B200042F001022264420705D5DA0703D0226CA5
:100B300042F002022264820705D5DA0703D0226C54
:100B400042F004022264020707D501F0200232437A
:100B500003D0226C42F008022264226C002A34D0B6
:100B6000800604D5880602D5204600F0B5FB206833
:100B70004069216CC0F38010090700D430B32046CF
:100B800000F092FB2068416949061BD5416921F0BC
:100B900040014161A06BA8B158494163A06BFFF7C8
:100BA0002BFB002811D0A06B416B01B0BDE8F040D9
:100BB000084783060FD58B060DD52046BDE8F840C3
:100BC00000F08ABB2046FFF794FFF8BD2046FFF7F0
:100BD00090FF2564F8BD266B2023012E52D1C60656
:100BE00050D5CE064ED5106850680090506940062A
:100BF0002AD5A16B086840680004000CEAD0A68DD5
:100C00008642E7D9E0858869202818D0D06820F48A
:100C10008070D0602068416921F001014161206845
:100C2000416921F04001416184F83E30256320682C
:100C3000C16821F01001C160A06BFFF7B9FAA08D67
:100C4000E18D401A81B219E0A08DE18D401A81B288
:100C5000E08D0028BED00029BCD0D06820F4907070
:100C6000D0602068426922F00102426184F83E307F
:100C700025632068C26822F01002C2602046FFF798
:100C800037FFF8BD05062BD50D0629D594F83D0094
:100C90002128F6D1A068B0F5805F01D12069B0B1FC
:100CA000206A411C2162216800784860E08C401E67
:100CB0000004000CE084E4D12068C16821F08001C8
:100CC000C1602068C16841F04001C160F8BD206A80
:100CD0000088C0F308005060206A801C2062E5E7AD
:100CE0004006F3D54806F1D5D168204621F04001F1
:100CF000D16084F83D3000F0E2F9F8BD99120008A7
:100D000070B5040004D094F83D00002510B106E051
:100D1000012070BD84F83C50204600F023F82420C8
:100D200084F83D002068C16821F40051C16020466C
:100D300000F02EFB2068016921F4904101612068D8
:100D4000416921F02A0141612068C16841F40051E4
:100D5000C1602564202084F83D0084F83E00002016
:100D600070BD0000F0B585B0002400940194029499
:100D700003940368384F022038490322384D460255
:100D8000BB4228D18B6943F480438B618B6903F4A8
:100D9000804304938B6943F004038B618969039258
:100DA00001F0040104910102CDE9001069462846D2
:100DB000FFF780FACDE90064694628460294FFF700
:100DC00079FA002211462520FFF7D0FB2520FFF7F6
:100DD000BFFB05B0F0BD234FBB4219D1CB6943F433
:100DE0000033CB61CB6903F4003304938B6943F088
:100DF00004038B618969039201F0040104910421C9
:100E0000CDE9001069462846FFF754FA08201BE098
:100E1000154DAB42DDD1CB6943F48023CB61CB6967
:100E200003F4802304938B6943F008038B61896981
:100E30000E4D01F00801CDE90321CDE900606946BE
:100E40002846FFF737FAE814CDE90004694628463A
:100E50000294FFF72FFABCE700380140001002406F
:100E6000000801400044004000480040000C0140E0
:100E700090F83E30202B0ED159B152B190F83C3051
:100E8000012B08D0012380F83C300023036300F0DD
:100E9000DBBA012070470220704700002DE9F041C5
:100EA00000684B4986B088427ED14A4942F21078A8
:100EB0000A780A2A11D001F10A044878464F267DA3
:100EC0000D2818D089780D297FD12638C5B2142174
:100ED00001A8FFF72EF900206AE0434606223FA151
:100EE000404800F093F806B00322BDE8F0413949CC
:100EF0003C48FFF7BDBF303AD5B2142101A8FFF737
:100F000018F9002020E0215CA94206D143460522C1
:100F100035A1344800F07AF818E0864213D1A5557F
:100F2000227D57F8250000902B4631A101A800F042
:100F3000E1FA4346142201A92A4800F067F8207D0F
:100F4000401C207502E0401C8642DCDA44464346E1
:100F5000032229A1234800F059F82346052227A19E
:100F6000204800F053F803222BE0215CA94206D16F
:100F7000434605221CA11B4800F048F81AE08642AF
:100F800015D1A555227D57F8250000902B4618A1B4
:100F900001A800F0AFFA4346142201A9114800F05D
:100FA00035F8207D401C00E00FE0207502E0401C79
:100FB0008642DADA4346062212A10A4800F026F8F1
:100FC000012204490748FFF753FF06B0BDE8F0814E
:100FD000003801406000002000000020CBAB320D43
:100FE0000A0000008000002063660D0A0000000077
:100FF00025642025642025730D0A0000B5A50D0A7F
:1010000000000000CBAB310D0A0000002DE9F843D1
:10101000044690F83D001F4616460D4620284CD148
:10102000C5B1BEB194F83C00012846D0012084F837
:101030003C004FF00008C4F84080212084F83D00B7
:10104000FFF728FAA6848146E684A068B0F5805FA1
:1010500003D004E00120BDE8F883206928B12E46C2
:101060005FF0000584F83C800EE00026FAE780215E
:10107000204600F004FAA0B9AEB116F8010B2168C1
:101080004860E08C401EE084E08C4B464FF000024C
:1010900000970028EBD14FF04001204600F0EFF917
:1010A00030B10320D7E735F8020BC0F30800E6E7BC
:1010B000202084F83D000020CDE70220CBE77047D8
:1010C000FEE700000D4808B5816941F0200181610B
:1010D000816901F020010091816941F00401816181
:1010E000816901F004010091816941F00801816189
:1010F000806900F00800009008BD00000010024068
:101100000C4810B50A4901604FF4165141600021A6
:1011100081600C22C160C0E904128161C161FFF7E6
:10112000EFFD002803D0BDE81040FFF73FB810BD29
:1011300000380140800000200C4810B50A490160C9
:101140004FF416514160002181600C22C160C0E95A
:1011500004128161C161FFF7D3FD002803D0BDE80F
:101160001040FFF723B810BD00440040C400002029
:101170000C4810B50A4901604FF4E131416000218B
:1011800081600C22C160C0E904128161C161FFF776
:10119000B7FD002803D0BDE81040FFF707B810BD29
:1011A0000048004008010020FEE7FEE77047704756
:1011B000FEB50546FEF7C8FFC4B200201AA18DF89F
:1011C00000000246D1E90001CDE90101E01C8DF8E3
:1011D000060001A89DF80030815C521C59408DF832
:1011E0000010052AF6D3002206E0A85C9DF8001046
:1011F00048408DF80000521CA242F6D34FF6FF760D
:101200003346052201A90A48FFF700FF334622466C
:1012100029460748FFF7FAFE33460122694604488B
:10122000FFF7F4FEFEBD0000FD000D010000000010
:10123000C4000020FFF734B930B58FB028216846CC
:10124000FEF777FF14210AA8FEF773FF01210804B7
:10125000CDE900100024029402250491CDE9075045
:101260004FF4E01009906846FFF79EFA08B172B695
:10127000FEE70F20CDE90A054FF48060CDE90C4070
:1012800002210AA80E94FFF7A3F9002801D072B634
:10129000FEE70FB030BD704710B5406A0021C18530
:1012A000C184FFF726FC10BD0168CA6822F4907261
:1012B000CA6001684A6922F001024A61016B012992
:1012C00004D10168CA6822F01002CA60202180F8A7
:1012D0003E1000210163704708B590F83E102229A6
:1012E00001D0022008BD82684FF480539A4201D198
:1012F000016921B1816A9A421BD04AB10AE00268B1
:10130000816A5268C2F308020A80816A891C08E077
:10131000026972B10268526802F07F020A70816A43
:10132000491C8162C18D491E0904090CC18503D085
:1013300019E002685268F1E70168CA6822F02002E9
:10134000CA600168CA6822F48072CA6001684A698A
:1013500022F001024A61202180F83E10016B012930
:1013600003D0FFF79BFD002008BD00210163016849
:10137000CA6822F01002CA6001680A68D20602D563
:101380000A6849680091818DFFF7B2FBEBE7000026
:1013900070B5044600680169E26821F440511143C8
:1013A00001612169A0680843616908432168CA682E
:1013B00041F20C639A430243CA6020684169A26902
:1013C00021F44071114341611E492068884202D1D5
:1013D000FFF7A4F901E0FFF791F900EBC00101EB81
:1013E0000012606864218000B2FBF0F3B3FBF1F3FC
:1013F0006FF018067343B2FBF0F5B2FBF0F605EBA5
:101400008305322303EB0515B5FBF1F5B6FBF1F6C9
:1014100005F0F00505EB0615B2FBF0F6B2FBF0F0B7
:10142000B0FBF1F06FF01802504306EB800003EBC5
:101430000010B0FBF1F0216800F00F002844886034
:1014400070BD00000038014081628285C2850021A4
:101450000164222280F83E2080F83C100168CA68AE
:1014600042F48072CA6001684A6942F001024A612E
:101470000068C16841F02001C160002070472DE97B
:10148000F041984617460E460446069D1DE0681C2E
:101490001BD02DB1FEF7FEFFA0EB0800A84214D927
:1014A0002068C16821F4D071C1602068416921F0D1
:1014B00001014161202084F83D0084F83E000020B5
:1014C00084F83C000320BDE8F0812068006836EA1B
:1014D000000004D00020B842D9D00020F3E701205A
:1014E000F9E700000148FFF705BB0000800000207D
:1014F000FEE700000FB4084B10B504A902AA039838
:1015000000F02CF8044602A9002000F003F9204660
:1015100010BC5DF814FB0000151700080907090E40
:10152000002804DB00F1E02080F80014704700F090
:101530000F0000F1E02080F8141D704702E008C899
:10154000121F08C1002AFAD170477047002001E03D
:1015500001C1121F002AFBD1704700002DE9FF4F87
:101560008BB09A460F460546002606E025280BD08C
:1015700052460D9990476D1C761C28780028F5D1AD
:101580000FB03046BDE8F08F0024A046012260492C
:1015900000E0044315F8013F203B02FA03F0084243
:1015A000F7D128782E2817D115F8010F44F004043C
:1015B0002A280ED06FF02F022878A0F130010929D7
:1015C0000AD808EB880102EB410100EB01086D1C11
:1015D000F2E757F8048B6D1C287869283ED006DCAA
:1015E0000028CDD063280BD0642804D136E07328BE
:1015F00010D075284BD052460D999047761C85E047
:1016000017F8040B8DF8000000208DF80100E94662
:10161000012003E057F8049B4FF0FF3061074FF0C3
:10162000000401D40AE0641C44450DDA8442FADB6C
:1016300019F804100029F6D106E0641C8442FCDB92
:1016400019F804100029F8D1264404E019F8010B18
:1016500052460D999047641EF8D257E001CF4FF0E3
:101660000A0B002802DA40422D2102E0210504D5B0
:101670002B218DF82410012103E0E10705D0202162
:10168000F7E70DF1200908910CE00021F9E701CFFF
:101690004FF00A0BF9E75946FEF75DFD01F1300204
:1016A00009F8012D0028F6D1ADEB090000F1200B5F
:1016B000600701D44FF00108D84502DDA8EB0B000C
:1016C00000E000208046002406E009A85246005DA4
:1016D0000D999047641C761C08988442F5DB04E061
:1016E000302052460D999047761CB8F10001A8F1C0
:1016F0000108F5DC05E019F8010B52460D999047F9
:10170000761CBBF10001ABF1010BF4DC6D1C34E77E
:10171000092801000A68531C0B6010707047000014
:1017200086B0FEF7C5FEFFF787FDFFF7CBFCFFF79E
:10173000E7FCFFF701FDFFF71BFD224C00274FF0F0
:10174000FF382775424604212046FEF7EBFC0322B2
:10175000A4F10A011C48FFF78BFB14216846FEF731
:10176000E8FC0025DFF8649042F2107B661E41F22F
:10177000883A207DA0B1815D684659F8212014A1E6
:10178000FFF7B8FE5B46142269460F48FFF73EFCA0
:101790006846FFF70DFD0A2D09D26D1CEDB20DE074
:1017A0005B460A220FA10848FFF730FCF3E700254B
:1017B0002775424604210348FEF7B4FC5046FEF765
:1017C00067FDD6E76A0000208000002000000020AE
:1017D0005B6D355D5B76315D5B74355D25730D0A40
:1017E000000000006E6F7468696E670D0A000000EB
:1017F00000000000000000000102030406070809C1
:101800000000000001020304C9B3B7A200000000F9
:10181000C5A30000D0A1C3A800000000B9ABBDBBA8
:10182000B3B50000BDCEB3B500000000D7D4D0D012
:10183000B3B50000BBF0B3B500000000D0A1B9B74C
:1018400000000000B4ACD6BB00000000CBAEC6BFA9
:1018500000000000B2CDD7C000000000C8CB0000DF
:10186000C4A6CDD000000000D2CED7D30000000027
:10187000C2ED0000D6B2CEEF00000000D0A1C4F14E
:1018800000000000C3E0D1F200000000D2A3BFD8E6
:10189000C6F70000B7C9BBFA00000000BC1800087A
:1018A00000000020600000003C1500081C19000822
:1018B00060000020F00400004C1500089418000897
:1018C0002C1800087C180008441800084C18000860
:1018D0001C180008241800081418000868180008CC
:1018E00010180008541800083C1800087018000868
:1018F000601800085C1800087418000884180008B4
:1019000008180008341800088C18000801000000AE
:0C19100010000000000000000024F400A3
:04000005080000ED02
:00000001FF
